{
    "contractName": "LinkDropProd",
    "abi": [
        {
            "inputs": [
                {
                    "internalType": "address",
                    "name": "_token",
                    "type": "address"
                },
                {
                    "internalType": "address payable",
                    "name": "_client",
                    "type": "address"
                },
                {
                    "internalType": "uint256",
                    "name": "_duration",
                    "type": "uint256"
                },
                {
                    "internalType": "uint256",
                    "name": "_cost",
                    "type": "uint256"
                },
                {
                    "internalType": "uint256",
                    "name": "_num",
                    "type": "uint256"
                },
                {
                    "internalType": "string",
                    "name": "_campaignID",
                    "type": "string"
                }
            ],
            "stateMutability": "nonpayable",
            "type": "constructor"
        },
        {
            "inputs": [],
            "name": "addLink",
            "outputs": [],
            "stateMutability": "nonpayable",
            "type": "function"
        },
        {
            "inputs": [
                {
                    "internalType": "uint256",
                    "name": "_id",
                    "type": "uint256"
                },
                {
                    "internalType": "uint256",
                    "name": "_balance",
                    "type": "uint256"
                },
                {
                    "internalType": "address",
                    "name": "_user",
                    "type": "address"
                },
                {
                    "internalType": "bytes",
                    "name": "_signature",
                    "type": "bytes"
                }
            ],
            "name": "airdrop",
            "outputs": [],
            "stateMutability": "nonpayable",
            "type": "function"
        },
        {
            "inputs": [],
            "name": "campaignID",
            "outputs": [
                {
                    "internalType": "string",
                    "name": "",
                    "type": "string"
                }
            ],
            "stateMutability": "view",
            "type": "function"
        },
        {
            "inputs": [],
            "name": "cancelCampaign",
            "outputs": [],
            "stateMutability": "nonpayable",
            "type": "function"
        },
        {
            "inputs": [],
            "name": "cost",
            "outputs": [
                {
                    "internalType": "uint256",
                    "name": "",
                    "type": "uint256"
                }
            ],
            "stateMutability": "view",
            "type": "function"
        },
        {
            "inputs": [],
            "name": "costPerNum",
            "outputs": [
                {
                    "internalType": "uint256",
                    "name": "",
                    "type": "uint256"
                }
            ],
            "stateMutability": "view",
            "type": "function"
        },
        {
            "inputs": [],
            "name": "createMultipleLinks",
            "outputs": [],
            "stateMutability": "nonpayable",
            "type": "function"
        },
        {
            "inputs": [],
            "name": "duration",
            "outputs": [
                {
                    "internalType": "uint256",
                    "name": "",
                    "type": "uint256"
                }
            ],
            "stateMutability": "view",
            "type": "function"
        },
        {
            "inputs": [],
            "name": "endTime",
            "outputs": [
                {
                    "internalType": "uint256",
                    "name": "",
                    "type": "uint256"
                }
            ],
            "stateMutability": "view",
            "type": "function"
        },
        {
            "inputs": [
                {
                    "internalType": "uint256",
                    "name": "_fundingAmount",
                    "type": "uint256"
                }
            ],
            "name": "fundContract",
            "outputs": [],
            "stateMutability": "nonpayable",
            "type": "function"
        },
        {
            "inputs": [],
            "name": "generatedLinkCount",
            "outputs": [
                {
                    "internalType": "uint256",
                    "name": "",
                    "type": "uint256"
                }
            ],
            "stateMutability": "view",
            "type": "function"
        },
        {
            "inputs": [],
            "name": "getLinks",
            "outputs": [
                {
                    "components": [
                        {
                            "internalType": "string",
                            "name": "campaignID",
                            "type": "string"
                        },
                        {
                            "internalType": "uint256",
                            "name": "id",
                            "type": "uint256"
                        },
                        {
                            "internalType": "uint256",
                            "name": "balance",
                            "type": "uint256"
                        },
                        {
                            "internalType": "address",
                            "name": "pubwallet",
                            "type": "address"
                        },
                        {
                            "internalType": "bool",
                            "name": "taken",
                            "type": "bool"
                        },
                        {
                            "internalType": "uint256",
                            "name": "time",
                            "type": "uint256"
                        },
                        {
                            "internalType": "bytes32",
                            "name": "puzzle",
                            "type": "bytes32"
                        }
                    ],
                    "internalType": "struct LinkDropProd.Link[]",
                    "name": "",
                    "type": "tuple[]"
                }
            ],
            "stateMutability": "view",
            "type": "function"
        },
        {
            "inputs": [
                {
                    "internalType": "uint256",
                    "name": "nu",
                    "type": "uint256"
                }
            ],
            "name": "getLinksByIndexFromValidator",
            "outputs": [
                {
                    "internalType": "bool",
                    "name": "",
                    "type": "bool"
                }
            ],
            "stateMutability": "view",
            "type": "function"
        },
        {
            "inputs": [],
            "name": "getLinksFromValidator",
            "outputs": [
                {
                    "internalType": "bool[]",
                    "name": "",
                    "type": "bool[]"
                }
            ],
            "stateMutability": "view",
            "type": "function"
        },
        {
            "inputs": [],
            "name": "initialSupply",
            "outputs": [
                {
                    "internalType": "uint256",
                    "name": "",
                    "type": "uint256"
                }
            ],
            "stateMutability": "view",
            "type": "function"
        },
        {
            "inputs": [
                {
                    "internalType": "uint256",
                    "name": "nuu",
                    "type": "uint256"
                },
                {
                    "internalType": "bytes",
                    "name": "signature",
                    "type": "bytes"
                }
            ],
            "name": "isValidSignature",
            "outputs": [
                {
                    "internalType": "bool",
                    "name": "",
                    "type": "bool"
                }
            ],
            "stateMutability": "view",
            "type": "function"
        },
        {
            "inputs": [],
            "name": "linkCount",
            "outputs": [
                {
                    "internalType": "uint256",
                    "name": "",
                    "type": "uint256"
                }
            ],
            "stateMutability": "view",
            "type": "function"
        },
        {
            "inputs": [],
            "name": "num",
            "outputs": [
                {
                    "internalType": "uint256",
                    "name": "",
                    "type": "uint256"
                }
            ],
            "stateMutability": "view",
            "type": "function"
        },
        {
            "inputs": [],
            "name": "pauseCampaign",
            "outputs": [],
            "stateMutability": "nonpayable",
            "type": "function"
        },
        {
            "inputs": [],
            "name": "randomString",
            "outputs": [
                {
                    "internalType": "string",
                    "name": "",
                    "type": "string"
                }
            ],
            "stateMutability": "view",
            "type": "function"
        },
        {
            "inputs": [],
            "name": "runCampaign",
            "outputs": [],
            "stateMutability": "nonpayable",
            "type": "function"
        },
        {
            "inputs": [],
            "name": "running",
            "outputs": [
                {
                    "internalType": "bool",
                    "name": "",
                    "type": "bool"
                }
            ],
            "stateMutability": "view",
            "type": "function"
        },
        {
            "inputs": [],
            "name": "startTime",
            "outputs": [
                {
                    "internalType": "uint256",
                    "name": "",
                    "type": "uint256"
                }
            ],
            "stateMutability": "view",
            "type": "function"
        },
        {
            "inputs": [],
            "name": "token",
            "outputs": [
                {
                    "internalType": "contract IERC20",
                    "name": "",
                    "type": "address"
                }
            ],
            "stateMutability": "view",
            "type": "function"
        }
    ],
    "bytecode": "60806040523480156200001157600080fd5b5060405162001c3138038062001c3183398101604081905262000034916200012d565b600e80546001600160a01b038089166001600160a01b03199283161790925560048054928816929091169190911790556009839055600a839055600b8290556200007f82846200026a565b600c55600580546001600160a01b031916331790556006620000a282826200031c565b50620000b084603c620003e8565b620000bd90603c620003e8565b620000ca906018620003e8565b6002819055426001819055620000e191906200040a565b60035550506000805460ff19166001179055506200042592505050565b6001600160a01b03811681146200011457600080fd5b50565b634e487b7160e01b600052604160045260246000fd5b60008060008060008060c087890312156200014757600080fd5b86516200015481620000fe565b809650506020808801516200016981620000fe565b604089015160608a015160808b015160a08c0151939950919750955093506001600160401b03808211156200019d57600080fd5b818a0191508a601f830112620001b257600080fd5b815181811115620001c757620001c762000117565b604051601f8201601f19908116603f01168101908382118183101715620001f257620001f262000117565b816040528281528d868487010111156200020b57600080fd5b600093505b828410156200022f578484018601518185018701529285019262000210565b82841115620002415760008684830101525b8096505050505050509295509295509295565b634e487b7160e01b600052601160045260246000fd5b6000826200028857634e487b7160e01b600052601260045260246000fd5b500490565b600181811c90821680620002a257607f821691505b602082108103620002c357634e487b7160e01b600052602260045260246000fd5b50919050565b601f8211156200031757600081815260208120601f850160051c81016020861015620002f25750805b601f850160051c820191505b818110156200031357828155600101620002fe565b5050505b505050565b81516001600160401b0381111562000338576200033862000117565b62000350816200034984546200028d565b84620002c9565b602080601f8311600181146200038857600084156200036f5750858301515b600019600386901b1c1916600185901b17855562000313565b600085815260208120601f198616915b82811015620003b95788860151825594840194600190910190840162000398565b5085821015620003d85787850151600019600388901b60f8161c191681555b5050505050600190811b01905550565b600081600019048311821515161562000405576200040562000254565b500290565b6000821982111562000420576200042062000254565b500190565b6117fc80620004356000396000f3fe608060405234801561001057600080fd5b50600436106101585760003560e01c806378e97925116100c3578063bafcd6781161007c578063bafcd67814610256578063d85bd5261461025e578063deb456da1461026b578063f293cd311461027e578063f66ddcbb14610286578063fc0c546a1461029b57600080fd5b806378e97925146101fd578063980e7844146102065780639ae6c8101461020e578063aac4767914610217578063b2af936214610220578063b78605b21461024357600080fd5b80633519a2f8116101155780633519a2f8146101b2578063378dc3dc146101c557806339f8ddbf146101ce57806342317f95146101d657806349ed2fa9146101df5780634e70b1dc146101f457600080fd5b80630c55b8771461015d5780630d10f3b5146101675780630fb5a6b41461016f57806312eeb88b1461018b57806313faede6146101a05780633197cbb6146101a9575b600080fd5b6101656102c6565b005b6101656102f0565b61017860025481565b6040519081526020015b60405180910390f35b61019361032f565b60405161018291906111d0565b61017860095481565b61017860035481565b6101656101c0366004611216565b61040c565b610178600a5481565b6101656104b5565b610178600d5481565b6101e7610692565b604051610182919061128b565b610178600b5481565b61017860015481565b610165610720565b610178600c5481565b61017860085481565b61023361022e3660046112e7565b610844565b6040519015158152602001610182565b610165610251366004611333565b6108be565b6101e7610a81565b6000546102339060ff1681565b610233610279366004611216565b610a8e565b610165610adb565b61028e610b14565b60405161018291906113a9565b600e546102ae906001600160a01b031681565b6040516001600160a01b039091168152602001610182565b60005b600b548110156102ed576102db6104b5565b806102e581611473565b9150506102c9565b50565b6004546001600160a01b031633146103235760405162461bcd60e51b815260040161031a9061148c565b60405180910390fd5b6000805460ff19169055565b6005546060906001600160a01b0316331461035c5760405162461bcd60e51b815260040161031a906114b0565b600060085467ffffffffffffffff811115610379576103796114d7565b6040519080825280602002602001820160405280156103a2578160200160208202803683370190505b50905060005b600854811015610406576000818152600760205260409020600301548251600160a01b90910460ff16908390839081106103e4576103e46114ed565b91151560209283029190910190910152806103fe81611473565b9150506103a8565b50905090565b6004546001600160a01b031633146104365760405162461bcd60e51b815260040161031a9061148c565b600e546040516323b872dd60e01b8152336004820152306024820152604481018390526001600160a01b03909116906323b872dd906064016020604051808303816000875af115801561048d573d6000803e3d6000fd5b505050506040513d601f19601f820116820180604052508101906104b19190611503565b5050565b6040518060e00160405280600680546104cd90611525565b80601f01602080910402602001604051908101604052809291908181526020018280546104f990611525565b80156105465780601f1061051b57610100808354040283529160200191610546565b820191906000526020600020905b81548152906001019060200180831161052957829003601f168201915b505050505081526020016008548152602001600c54815260200160006001600160a01b031681526020016000151581526020016000815260200161058b600854610d06565b610596600c54610d06565b60066040516020016105aa9392919061155f565b60408051601f19818403018152908290526105c7916020016115ff565b60408051601f1981840301815291815281516020928301209092526008546000908152600790915220815181906105fe908261166a565b506020820151600182015560408201516002820155606082015160038201805460808501511515600160a01b026001600160a81b03199091166001600160a01b039093169290921791909117905560a0820151600482015560c0909101516005909101556008805490600061067283611473565b9190505550600c546009600082825461068b919061172a565b9091555050565b6006805461069f90611525565b80601f01602080910402602001604051908101604052809291908181526020018280546106cb90611525565b80156107185780601f106106ed57610100808354040283529160200191610718565b820191906000526020600020905b8154815290600101906020018083116106fb57829003601f168201915b505050505081565b6004546001600160a01b0316331461074a5760405162461bcd60e51b815260040161031a9061148c565b600e546040516370a0823160e01b81523060048201526000916001600160a01b0316906370a0823190602401602060405180830381865afa158015610793573d6000803e3d6000fd5b505050506040513d601f19601f820116820180604052508101906107b79190611741565b600e546004805460405163a9059cbb60e01b81526001600160a01b03918216928101929092526024820184905292935091169063a9059cbb906044016020604051808303816000875af1158015610812573d6000803e3d6000fd5b505050506040513d601f19601f820116820180604052508101906108369190611503565b50506000805460ff19169055565b600554604080516020601f85018190048102820181019092528381526000926001600160a01b0316916108ac9190869086908190840183828082843760009201829052508a8152600760205260409020600501546108a693509150610e0f9050565b90610e62565b6001600160a01b031614949350505050565b6005546001600160a01b031633146108e85760405162461bcd60e51b815260040161031a906114b0565b42600354116109435760405162461bcd60e51b815260206004820152602160248201527f74696d657374616d7020657863656564732065787069726174696f6e206461746044820152606560f81b606482015260840161031a565b600085815260076020526040902060030154600160a01b900460ff161561096957600080fd5b600085815260076020526040902060020154841461098657600080fd5b60005460ff16151560011461099a57600080fd5b6109a5858383610844565b15156001146109b357600080fd5b600e546000868152600760205260409081902060020154905163a9059cbb60e01b81526001600160a01b038681166004830152602482019290925291169063a9059cbb906044016020604051808303816000875af1158015610a19573d6000803e3d6000fd5b505050506040513d601f19601f82011682018060405250810190610a3d9190611503565b50505060009283526007602052604083206003810180546002909201949094556001600160a01b039091166001600160a81b031990911617600160a01b1790915550565b600f805461069f90611525565b6005546000906001600160a01b03163314610abb5760405162461bcd60e51b815260040161031a906114b0565b50600090815260076020526040902060030154600160a01b900460ff1690565b6004546001600160a01b03163314610b055760405162461bcd60e51b815260040161031a9061148c565b6000805460ff19166001179055565b6004546060906001600160a01b03163314610b415760405162461bcd60e51b815260040161031a9061148c565b600060085467ffffffffffffffff811115610b5e57610b5e6114d7565b604051908082528060200260200182016040528015610bc657816020015b6040805160e0810182526060808252600060208084018290529383018190529082018190526080820181905260a0820181905260c08201528252600019909201910181610b7c5790505b50905060005b6008548110156104065760008181526007602052604090819020815160e081019092528054909190829082908290610c0390611525565b80601f0160208091040260200160405190810160405280929190818152602001828054610c2f90611525565b8015610c7c5780601f10610c5157610100808354040283529160200191610c7c565b820191906000526020600020905b815481529060010190602001808311610c5f57829003601f168201915b5050509183525050600182015460208201526002820154604082015260038201546001600160a01b0381166060830152600160a01b900460ff1615156080820152600482015460a082015260059091015460c0909101528351849084908110610ce757610ce76114ed565b6020026020010181905250508080610cfe90611473565b915050610bcc565b606081600003610d2d5750506040805180820190915260018152600360fc1b602082015290565b8160005b8115610d575780610d4181611473565b9150610d509050600a83611770565b9150610d31565b60008167ffffffffffffffff811115610d7257610d726114d7565b6040519080825280601f01601f191660200182016040528015610d9c576020820181803683370190505b5090505b8415610e0757610db160018361172a565b9150610dbe600a86611784565b610dc9906030611798565b60f81b818381518110610dde57610dde6114ed565b60200101906001600160f81b031916908160001a905350610e00600a86611770565b9450610da0565b949350505050565b6040517f19457468657265756d205369676e6564204d6573736167653a0a3332000000006020820152603c8101829052600090605c01604051602081830303815290604052805190602001209050919050565b6000806000610e718585610e86565b91509150610e7e81610ef4565b509392505050565b6000808251604103610ebc5760208301516040840151606085015160001a610eb0878285856110aa565b94509450505050610eed565b8251604003610ee55760208301516040840151610eda868383611197565b935093505050610eed565b506000905060025b9250929050565b6000816004811115610f0857610f086117b0565b03610f105750565b6001816004811115610f2457610f246117b0565b03610f715760405162461bcd60e51b815260206004820152601860248201527f45434453413a20696e76616c6964207369676e61747572650000000000000000604482015260640161031a565b6002816004811115610f8557610f856117b0565b03610fd25760405162461bcd60e51b815260206004820152601f60248201527f45434453413a20696e76616c6964207369676e6174757265206c656e67746800604482015260640161031a565b6003816004811115610fe657610fe66117b0565b0361103e5760405162461bcd60e51b815260206004820152602260248201527f45434453413a20696e76616c6964207369676e6174757265202773272076616c604482015261756560f01b606482015260840161031a565b6004816004811115611052576110526117b0565b036102ed5760405162461bcd60e51b815260206004820152602260248201527f45434453413a20696e76616c6964207369676e6174757265202776272076616c604482015261756560f01b606482015260840161031a565b6000807f7fffffffffffffffffffffffffffffff5d576e7357a4501ddfe92f46681b20a08311156110e1575060009050600361118e565b8460ff16601b141580156110f957508460ff16601c14155b1561110a575060009050600461118e565b6040805160008082526020820180845289905260ff881692820192909252606081018690526080810185905260019060a0016020604051602081039080840390855afa15801561115e573d6000803e3d6000fd5b5050604051601f1901519150506001600160a01b0381166111875760006001925092505061118e565b9150600090505b94509492505050565b6000806001600160ff1b038316816111b460ff86901c601b611798565b90506111c2878288856110aa565b935093505050935093915050565b6020808252825182820181905260009190848201906040850190845b8181101561120a5783511515835292840192918401916001016111ec565b50909695505050505050565b60006020828403121561122857600080fd5b5035919050565b60005b8381101561124a578181015183820152602001611232565b83811115611259576000848401525b50505050565b6000815180845261127781602086016020860161122f565b601f01601f19169290920160200192915050565b60208152600061129e602083018461125f565b9392505050565b60008083601f8401126112b757600080fd5b50813567ffffffffffffffff8111156112cf57600080fd5b602083019150836020828501011115610eed57600080fd5b6000806000604084860312156112fc57600080fd5b83359250602084013567ffffffffffffffff81111561131a57600080fd5b611326868287016112a5565b9497909650939450505050565b60008060008060006080868803121561134b57600080fd5b853594506020860135935060408601356001600160a01b038116811461137057600080fd5b9250606086013567ffffffffffffffff81111561138c57600080fd5b611398888289016112a5565b969995985093965092949392505050565b60006020808301818452808551808352604092508286019150828160051b87010184880160005b8381101561144f57603f19898403018552815160e081518186526113f68287018261125f565b838b0151878c0152898401518a8801526060808501516001600160a01b03169088015260808085015115159088015260a0808501519088015260c0938401519390960192909252505093860193908601906001016113d0565b509098975050505050505050565b634e487b7160e01b600052601160045260246000fd5b6000600182016114855761148561145d565b5060010190565b6020808252600a90820152691b9bdd0818db1a595b9d60b21b604082015260600190565b6020808252600d908201526c3737ba103b30b634b230ba37b960991b604082015260600190565b634e487b7160e01b600052604160045260246000fd5b634e487b7160e01b600052603260045260246000fd5b60006020828403121561151557600080fd5b8151801515811461129e57600080fd5b600181811c9082168061153957607f821691505b60208210810361155957634e487b7160e01b600052602260045260246000fd5b50919050565b6000845160206115728285838a0161122f565b8551918401916115858184848a0161122f565b855492019160009061159681611525565b600182811680156115ae57600181146115c3576115ef565b60ff19841687528215158302870194506115ef565b896000528560002060005b848110156115e7578154898201529083019087016115ce565b505082870194505b50929a9950505050505050505050565b6000825161161181846020870161122f565b9190910192915050565b601f82111561166557600081815260208120601f850160051c810160208610156116425750805b601f850160051c820191505b818110156116615782815560010161164e565b5050505b505050565b815167ffffffffffffffff811115611684576116846114d7565b611698816116928454611525565b8461161b565b602080601f8311600181146116cd57600084156116b55750858301515b600019600386901b1c1916600185901b178555611661565b600085815260208120601f198616915b828110156116fc578886015182559484019460019091019084016116dd565b508582101561171a5787850151600019600388901b60f8161c191681555b5050505050600190811b01905550565b60008282101561173c5761173c61145d565b500390565b60006020828403121561175357600080fd5b5051919050565b634e487b7160e01b600052601260045260246000fd5b60008261177f5761177f61175a565b500490565b6000826117935761179361175a565b500690565b600082198211156117ab576117ab61145d565b500190565b634e487b7160e01b600052602160045260246000fdfea2646970667358221220a69366bc9104388d2587b628d7517e4fdd4541b5e99a8bcb0abc81fb60b138a664736f6c634300080f0033",
    "sourcePath": "/Users/vuegoman/code/node/DropTheBitWeb/contracts/LinkDropProd.sol",
    "compiler": {
        "name": "solc",
        "version": "0.8.15+commit.e14f2714"
    },
    "functionHashes": {
        "addLink()": "39f8ddbf",
        "airdrop(uint256,uint256,address,bytes)": "b78605b2",
        "campaignID()": "49ed2fa9",
        "cancelCampaign()": "980e7844",
        "cost()": "13faede6",
        "costPerNum()": "9ae6c810",
        "createMultipleLinks()": "0c55b877",
        "duration()": "0fb5a6b4",
        "endTime()": "3197cbb6",
        "fundContract(uint256)": "3519a2f8",
        "generatedLinkCount()": "42317f95",
        "getLinks()": "f66ddcbb",
        "getLinksByIndexFromValidator(uint256)": "deb456da",
        "getLinksFromValidator()": "12eeb88b",
        "initialSupply()": "378dc3dc",
        "isValidSignature(uint256,bytes)": "b2af9362",
        "linkCount()": "aac47679",
        "num()": "4e70b1dc",
        "pauseCampaign()": "0d10f3b5",
        "randomString()": "bafcd678",
        "runCampaign()": "f293cd31",
        "running()": "d85bd526",
        "startTime()": "78e97925",
        "token()": "fc0c546a"
    },
    "gasEstimates": {
        "creation": {
            "codeDepositCost": "1228000",
            "executionCost": "infinite",
            "totalCost": "infinite"
        },
        "external": {
            "addLink()": "infinite",
            "airdrop(uint256,uint256,address,bytes)": "infinite",
            "campaignID()": "infinite",
            "cancelCampaign()": "infinite",
            "cost()": "2396",
            "costPerNum()": "2351",
            "createMultipleLinks()": "infinite",
            "duration()": "2352",
            "endTime()": "2418",
            "fundContract(uint256)": "infinite",
            "generatedLinkCount()": "2373",
            "getLinks()": "infinite",
            "getLinksByIndexFromValidator(uint256)": "4699",
            "getLinksFromValidator()": "infinite",
            "initialSupply()": "2329",
            "isValidSignature(uint256,bytes)": "infinite",
            "linkCount()": "2373",
            "num()": "2417",
            "pauseCampaign()": "26548",
            "randomString()": "infinite",
            "runCampaign()": "26596",
            "running()": "2354",
            "startTime()": "2307",
            "token()": "2469"
        }
    }
}