{
  "_format": "hh-sol-artifact-1",
  "contractName": "LinkDropTest",
  "sourceName": "contracts/LinkDropTest.sol",
  "abi": [
    {
      "inputs": [
        {
          "internalType": "address",
          "name": "_token",
          "type": "address"
        },
        {
          "internalType": "address payable",
          "name": "_client",
          "type": "address"
        },
        {
          "internalType": "uint256",
          "name": "_duration",
          "type": "uint256"
        },
        {
          "internalType": "uint256",
          "name": "_cost",
          "type": "uint256"
        },
        {
          "internalType": "uint256",
          "name": "_num",
          "type": "uint256"
        },
        {
          "internalType": "string",
          "name": "_campaignID",
          "type": "string"
        }
      ],
      "stateMutability": "nonpayable",
      "type": "constructor"
    },
    {
      "inputs": [],
      "name": "addLink",
      "outputs": [],
      "stateMutability": "nonpayable",
      "type": "function"
    },
    {
      "inputs": [
        {
          "internalType": "uint256",
          "name": "_id",
          "type": "uint256"
        },
        {
          "internalType": "uint256",
          "name": "_balance",
          "type": "uint256"
        },
        {
          "internalType": "address",
          "name": "_user",
          "type": "address"
        },
        {
          "internalType": "bytes",
          "name": "_signature",
          "type": "bytes"
        }
      ],
      "name": "airdrop",
      "outputs": [],
      "stateMutability": "nonpayable",
      "type": "function"
    },
    {
      "inputs": [],
      "name": "campaignID",
      "outputs": [
        {
          "internalType": "string",
          "name": "",
          "type": "string"
        }
      ],
      "stateMutability": "view",
      "type": "function"
    },
    {
      "inputs": [],
      "name": "cancelCampaign",
      "outputs": [],
      "stateMutability": "nonpayable",
      "type": "function"
    },
    {
      "inputs": [],
      "name": "client",
      "outputs": [
        {
          "internalType": "address payable",
          "name": "",
          "type": "address"
        }
      ],
      "stateMutability": "view",
      "type": "function"
    },
    {
      "inputs": [],
      "name": "cost",
      "outputs": [
        {
          "internalType": "uint256",
          "name": "",
          "type": "uint256"
        }
      ],
      "stateMutability": "view",
      "type": "function"
    },
    {
      "inputs": [],
      "name": "costPerNum",
      "outputs": [
        {
          "internalType": "uint256",
          "name": "",
          "type": "uint256"
        }
      ],
      "stateMutability": "view",
      "type": "function"
    },
    {
      "inputs": [
        {
          "internalType": "uint256",
          "name": "nu",
          "type": "uint256"
        }
      ],
      "name": "createMultipleLinks",
      "outputs": [],
      "stateMutability": "nonpayable",
      "type": "function"
    },
    {
      "inputs": [],
      "name": "duration",
      "outputs": [
        {
          "internalType": "uint256",
          "name": "",
          "type": "uint256"
        }
      ],
      "stateMutability": "view",
      "type": "function"
    },
    {
      "inputs": [],
      "name": "endTime",
      "outputs": [
        {
          "internalType": "uint256",
          "name": "",
          "type": "uint256"
        }
      ],
      "stateMutability": "view",
      "type": "function"
    },
    {
      "inputs": [
        {
          "internalType": "uint256",
          "name": "_fundingAmount",
          "type": "uint256"
        }
      ],
      "name": "fundContract",
      "outputs": [],
      "stateMutability": "nonpayable",
      "type": "function"
    },
    {
      "inputs": [],
      "name": "getLinks",
      "outputs": [
        {
          "components": [
            {
              "internalType": "string",
              "name": "campaignID",
              "type": "string"
            },
            {
              "internalType": "uint256",
              "name": "id",
              "type": "uint256"
            },
            {
              "internalType": "uint256",
              "name": "balance",
              "type": "uint256"
            },
            {
              "internalType": "address",
              "name": "pubwallet",
              "type": "address"
            },
            {
              "internalType": "bool",
              "name": "taken",
              "type": "bool"
            },
            {
              "internalType": "uint256",
              "name": "time",
              "type": "uint256"
            },
            {
              "internalType": "bytes32",
              "name": "puzzle",
              "type": "bytes32"
            }
          ],
          "internalType": "struct LinkDropTest.Link[]",
          "name": "",
          "type": "tuple[]"
        }
      ],
      "stateMutability": "view",
      "type": "function"
    },
    {
      "inputs": [
        {
          "internalType": "uint256",
          "name": "nu",
          "type": "uint256"
        }
      ],
      "name": "getLinksByIndexFromValidator",
      "outputs": [
        {
          "internalType": "bool",
          "name": "",
          "type": "bool"
        }
      ],
      "stateMutability": "view",
      "type": "function"
    },
    {
      "inputs": [],
      "name": "getLinksFromValidator",
      "outputs": [
        {
          "internalType": "bool[]",
          "name": "",
          "type": "bool[]"
        }
      ],
      "stateMutability": "view",
      "type": "function"
    },
    {
      "inputs": [],
      "name": "initialSupply",
      "outputs": [
        {
          "internalType": "uint256",
          "name": "",
          "type": "uint256"
        }
      ],
      "stateMutability": "view",
      "type": "function"
    },
    {
      "inputs": [
        {
          "internalType": "uint256",
          "name": "nuu",
          "type": "uint256"
        },
        {
          "internalType": "bytes",
          "name": "signature",
          "type": "bytes"
        }
      ],
      "name": "isValidSignature",
      "outputs": [
        {
          "internalType": "bool",
          "name": "",
          "type": "bool"
        }
      ],
      "stateMutability": "view",
      "type": "function"
    },
    {
      "inputs": [],
      "name": "linkCount",
      "outputs": [
        {
          "internalType": "uint256",
          "name": "",
          "type": "uint256"
        }
      ],
      "stateMutability": "view",
      "type": "function"
    },
    {
      "inputs": [
        {
          "internalType": "uint256",
          "name": "",
          "type": "uint256"
        }
      ],
      "name": "links",
      "outputs": [
        {
          "internalType": "string",
          "name": "campaignID",
          "type": "string"
        },
        {
          "internalType": "uint256",
          "name": "id",
          "type": "uint256"
        },
        {
          "internalType": "uint256",
          "name": "balance",
          "type": "uint256"
        },
        {
          "internalType": "address",
          "name": "pubwallet",
          "type": "address"
        },
        {
          "internalType": "bool",
          "name": "taken",
          "type": "bool"
        },
        {
          "internalType": "uint256",
          "name": "time",
          "type": "uint256"
        },
        {
          "internalType": "bytes32",
          "name": "puzzle",
          "type": "bytes32"
        }
      ],
      "stateMutability": "view",
      "type": "function"
    },
    {
      "inputs": [],
      "name": "num",
      "outputs": [
        {
          "internalType": "uint256",
          "name": "",
          "type": "uint256"
        }
      ],
      "stateMutability": "view",
      "type": "function"
    },
    {
      "inputs": [],
      "name": "pauseCampaign",
      "outputs": [],
      "stateMutability": "nonpayable",
      "type": "function"
    },
    {
      "inputs": [],
      "name": "runCampaign",
      "outputs": [],
      "stateMutability": "nonpayable",
      "type": "function"
    },
    {
      "inputs": [],
      "name": "running",
      "outputs": [
        {
          "internalType": "bool",
          "name": "",
          "type": "bool"
        }
      ],
      "stateMutability": "view",
      "type": "function"
    },
    {
      "inputs": [],
      "name": "startTime",
      "outputs": [
        {
          "internalType": "uint256",
          "name": "",
          "type": "uint256"
        }
      ],
      "stateMutability": "view",
      "type": "function"
    },
    {
      "inputs": [],
      "name": "token",
      "outputs": [
        {
          "internalType": "contract IERC20",
          "name": "",
          "type": "address"
        }
      ],
      "stateMutability": "view",
      "type": "function"
    },
    {
      "inputs": [],
      "name": "validator",
      "outputs": [
        {
          "internalType": "address",
          "name": "",
          "type": "address"
        }
      ],
      "stateMutability": "view",
      "type": "function"
    }
  ],
  "bytecode": "0x60806040523480156200001157600080fd5b5060405162003576380380620035768339818101604052810190620000379190620004e3565b85600d60006101000a81548173ffffffffffffffffffffffffffffffffffffffff021916908373ffffffffffffffffffffffffffffffffffffffff16021790555084600460006101000a81548173ffffffffffffffffffffffffffffffffffffffff021916908373ffffffffffffffffffffffffffffffffffffffff1602179055508260098190555082600a8190555081600b819055508183620000dc9190620005fc565b600c8190555033600560006101000a81548173ffffffffffffffffffffffffffffffffffffffff021916908373ffffffffffffffffffffffffffffffffffffffff16021790555080600690805190602001906200013b929190620001b1565b506018603c80866200014e919062000634565b6200015a919062000634565b62000166919062000634565b6002819055504260018190555060025460015462000185919062000695565b60038190555060016000806101000a81548160ff02191690831515021790555050505050505062000756565b828054620001bf9062000721565b90600052602060002090601f016020900481019282620001e357600085556200022f565b82601f10620001fe57805160ff19168380011785556200022f565b828001600101855582156200022f579182015b828111156200022e57825182559160200191906001019062000211565b5b5090506200023e919062000242565b5090565b5b808211156200025d57600081600090555060010162000243565b5090565b6000604051905090565b600080fd5b600080fd5b600073ffffffffffffffffffffffffffffffffffffffff82169050919050565b6000620002a28262000275565b9050919050565b620002b48162000295565b8114620002c057600080fd5b50565b600081519050620002d481620002a9565b92915050565b6000620002e78262000275565b9050919050565b620002f981620002da565b81146200030557600080fd5b50565b6000815190506200031981620002ee565b92915050565b6000819050919050565b62000334816200031f565b81146200034057600080fd5b50565b600081519050620003548162000329565b92915050565b600080fd5b600080fd5b6000601f19601f8301169050919050565b7f4e487b7100000000000000000000000000000000000000000000000000000000600052604160045260246000fd5b620003af8262000364565b810181811067ffffffffffffffff82111715620003d157620003d062000375565b5b80604052505050565b6000620003e662000261565b9050620003f48282620003a4565b919050565b600067ffffffffffffffff82111562000417576200041662000375565b5b620004228262000364565b9050602081019050919050565b60005b838110156200044f57808201518184015260208101905062000432565b838111156200045f576000848401525b50505050565b60006200047c6200047684620003f9565b620003da565b9050828152602081018484840111156200049b576200049a6200035f565b5b620004a88482856200042f565b509392505050565b600082601f830112620004c857620004c76200035a565b5b8151620004da84826020860162000465565b91505092915050565b60008060008060008060c087890312156200050357620005026200026b565b5b60006200051389828a01620002c3565b96505060206200052689828a0162000308565b95505060406200053989828a0162000343565b94505060606200054c89828a0162000343565b93505060806200055f89828a0162000343565b92505060a087015167ffffffffffffffff81111562000583576200058262000270565b5b6200059189828a01620004b0565b9150509295509295509295565b7f4e487b7100000000000000000000000000000000000000000000000000000000600052601260045260246000fd5b7f4e487b7100000000000000000000000000000000000000000000000000000000600052601160045260246000fd5b600062000609826200031f565b915062000616836200031f565b9250826200062957620006286200059e565b5b828204905092915050565b600062000641826200031f565b91506200064e836200031f565b9250817fffffffffffffffffffffffffffffffffffffffffffffffffffffffffffffffff04831182151516156200068a5762000689620005cd565b5b828202905092915050565b6000620006a2826200031f565b9150620006af836200031f565b9250827fffffffffffffffffffffffffffffffffffffffffffffffffffffffffffffffff03821115620006e757620006e6620005cd565b5b828201905092915050565b7f4e487b7100000000000000000000000000000000000000000000000000000000600052602260045260246000fd5b600060028204905060018216806200073a57607f821691505b60208210810362000750576200074f620006f2565b5b50919050565b612e1080620007666000396000f3fe608060405234801561001057600080fd5b50600436106101735760003560e01c806374654479116100de578063b2af936211610097578063deb456da11610071578063deb456da146103d6578063f293cd3114610406578063f66ddcbb14610410578063fc0c546a1461042e57610173565b8063b2af93621461036c578063b78605b21461039c578063d85bd526146103b857610173565b806374654479146102b657806378e97925146102d2578063881d8a40146102f0578063980e7844146103265780639ae6c81014610330578063aac476791461034e57610173565b80633519a2f8116101305780633519a2f814610218578063378dc3dc1461023457806339f8ddbf146102525780633a5381b51461025c57806349ed2fa91461027a5780634e70b1dc1461029857610173565b80630d10f3b5146101785780630fb5a6b414610182578063109e94cf146101a057806312eeb88b146101be57806313faede6146101dc5780633197cbb6146101fa575b600080fd5b61018061044c565b005b61018a6104f8565b6040516101979190611d44565b60405180910390f35b6101a86104fe565b6040516101b59190611da0565b60405180910390f35b6101c6610524565b6040516101d39190611e85565b60405180910390f35b6101e4610676565b6040516101f19190611d44565b60405180910390f35b61020261067c565b60405161020f9190611d44565b60405180910390f35b610232600480360381019061022d9190611edd565b610682565b005b61023c6107b8565b6040516102499190611d44565b60405180910390f35b61025a6107be565b005b610264610a81565b6040516102719190611f2b565b60405180910390f35b610282610aa7565b60405161028f9190611fdf565b60405180910390f35b6102a0610b35565b6040516102ad9190611d44565b60405180910390f35b6102d060048036038101906102cb9190611edd565b610b3b565b005b6102da610bf5565b6040516102e79190611d44565b60405180910390f35b61030a60048036038101906103059190611edd565b610bfb565b60405161031d9796959493929190612029565b60405180910390f35b61032e610cf2565b005b610338610f02565b6040516103459190611d44565b60405180910390f35b610356610f08565b6040516103639190611d44565b60405180910390f35b61038660048036038101906103819190612104565b610f0e565b6040516103939190612164565b60405180910390f35b6103b660048036038101906103b191906121ab565b61106e565b005b6103c061132f565b6040516103cd9190612164565b60405180910390f35b6103f060048036038101906103eb9190611edd565b611340565b6040516103fd9190612164565b60405180910390f35b61040e6113fd565b005b6104186114a9565b6040516104259190612408565b60405180910390f35b61043661172a565b6040516104439190612489565b60405180910390f35b600460009054906101000a900473ffffffffffffffffffffffffffffffffffffffff1673ffffffffffffffffffffffffffffffffffffffff163373ffffffffffffffffffffffffffffffffffffffff16146104dc576040517f08c379a00000000000000000000000000000000000000000000000000000000081526004016104d3906124f0565b60405180910390fd5b60008060006101000a81548160ff021916908315150217905550565b60025481565b600460009054906101000a900473ffffffffffffffffffffffffffffffffffffffff1681565b6060600560009054906101000a900473ffffffffffffffffffffffffffffffffffffffff1673ffffffffffffffffffffffffffffffffffffffff163373ffffffffffffffffffffffffffffffffffffffff16146105b6576040517f08c379a00000000000000000000000000000000000000000000000000000000081526004016105ad9061255c565b60405180910390fd5b600060085467ffffffffffffffff8111156105d4576105d361257c565b5b6040519080825280602002602001820160405280156106025781602001602082028036833780820191505090505b50905060005b60085481101561066e576007600082815260200190815260200160002060030160149054906101000a900460ff16828281518110610649576106486125ab565b5b602002602001019015159081151581525050808061066690612609565b915050610608565b508091505090565b60095481565b60035481565b600460009054906101000a900473ffffffffffffffffffffffffffffffffffffffff1673ffffffffffffffffffffffffffffffffffffffff163373ffffffffffffffffffffffffffffffffffffffff1614610712576040517f08c379a0000000000000000000000000000000000000000000000000000000008152600401610709906124f0565b60405180910390fd5b600d60009054906101000a900473ffffffffffffffffffffffffffffffffffffffff1673ffffffffffffffffffffffffffffffffffffffff166323b872dd3330846040518463ffffffff1660e01b815260040161077193929190612651565b6020604051808303816000875af1158015610790573d6000803e3d6000fd5b505050506040513d601f19601f820116820180604052508101906107b491906126b4565b5050565b600a5481565b600560009054906101000a900473ffffffffffffffffffffffffffffffffffffffff1673ffffffffffffffffffffffffffffffffffffffff163373ffffffffffffffffffffffffffffffffffffffff161461084e576040517f08c379a00000000000000000000000000000000000000000000000000000000081526004016108459061255c565b60405180910390fd5b6040518060e001604052806006805461086690612710565b80601f016020809104026020016040519081016040528092919081815260200182805461089290612710565b80156108df5780601f106108b4576101008083540402835291602001916108df565b820191906000526020600020905b8154815290600101906020018083116108c257829003601f168201915b505050505081526020016008548152602001600c548152602001600073ffffffffffffffffffffffffffffffffffffffff16815260200160001515815260200160008152602001610931600854611750565b61093c600c54611750565b600660405160200161095093929190612811565b60405160208183030381529060405260405160200161096f9190612842565b6040516020818303038152906040528051906020012081525060076000600854815260200190815260200160002060008201518160000190805190602001906109b9929190611c30565b50602082015181600101556040820151816002015560608201518160030160006101000a81548173ffffffffffffffffffffffffffffffffffffffff021916908373ffffffffffffffffffffffffffffffffffffffff16021790555060808201518160030160146101000a81548160ff02191690831515021790555060a0820151816004015560c0820151816005015590505060086000815480929190610a5f90612609565b9190505550600c5460096000828254610a789190612859565b92505081905550565b600560009054906101000a900473ffffffffffffffffffffffffffffffffffffffff1681565b60068054610ab490612710565b80601f0160208091040260200160405190810160405280929190818152602001828054610ae090612710565b8015610b2d5780601f10610b0257610100808354040283529160200191610b2d565b820191906000526020600020905b815481529060010190602001808311610b1057829003601f168201915b505050505081565b600b5481565b600560009054906101000a900473ffffffffffffffffffffffffffffffffffffffff1673ffffffffffffffffffffffffffffffffffffffff163373ffffffffffffffffffffffffffffffffffffffff1614610bcb576040517f08c379a0000000000000000000000000000000000000000000000000000000008152600401610bc29061255c565b60405180910390fd5b60005b81811015610bf157610bde6107be565b8080610be990612609565b915050610bce565b5050565b60015481565b6007602052806000526040600020600091509050806000018054610c1e90612710565b80601f0160208091040260200160405190810160405280929190818152602001828054610c4a90612710565b8015610c975780601f10610c6c57610100808354040283529160200191610c97565b820191906000526020600020905b815481529060010190602001808311610c7a57829003601f168201915b5050505050908060010154908060020154908060030160009054906101000a900473ffffffffffffffffffffffffffffffffffffffff16908060030160149054906101000a900460ff16908060040154908060050154905087565b600460009054906101000a900473ffffffffffffffffffffffffffffffffffffffff1673ffffffffffffffffffffffffffffffffffffffff163373ffffffffffffffffffffffffffffffffffffffff1614610d82576040517f08c379a0000000000000000000000000000000000000000000000000000000008152600401610d79906124f0565b60405180910390fd5b6000600d60009054906101000a900473ffffffffffffffffffffffffffffffffffffffff1673ffffffffffffffffffffffffffffffffffffffff166370a08231306040518263ffffffff1660e01b8152600401610ddf9190611f2b565b602060405180830381865afa158015610dfc573d6000803e3d6000fd5b505050506040513d601f19601f82011682018060405250810190610e2091906128a2565b9050600d60009054906101000a900473ffffffffffffffffffffffffffffffffffffffff1673ffffffffffffffffffffffffffffffffffffffff1663a9059cbb600460009054906101000a900473ffffffffffffffffffffffffffffffffffffffff16836040518363ffffffff1660e01b8152600401610ea19291906128f0565b6020604051808303816000875af1158015610ec0573d6000803e3d6000fd5b505050506040513d601f19601f82011682018060405250810190610ee491906126b4565b5060008060006101000a81548160ff02191690831515021790555050565b600c5481565b60085481565b6000600560009054906101000a900473ffffffffffffffffffffffffffffffffffffffff1673ffffffffffffffffffffffffffffffffffffffff163373ffffffffffffffffffffffffffffffffffffffff1614610fa0576040517f08c379a0000000000000000000000000000000000000000000000000000000008152600401610f979061255c565b60405180910390fd5b600560009054906101000a900473ffffffffffffffffffffffffffffffffffffffff1673ffffffffffffffffffffffffffffffffffffffff1661104e84848080601f016020809104026020016040519081016040528093929190818152602001838380828437600081840152601f19601f8201169050808301925050505050505061104060076000898152602001908152602001600020600501546118b0565b6118e090919063ffffffff16565b73ffffffffffffffffffffffffffffffffffffffff161490509392505050565b600560009054906101000a900473ffffffffffffffffffffffffffffffffffffffff1673ffffffffffffffffffffffffffffffffffffffff163373ffffffffffffffffffffffffffffffffffffffff16146110fe576040517f08c379a00000000000000000000000000000000000000000000000000000000081526004016110f59061255c565b60405180910390fd5b4260035411611142576040517f08c379a00000000000000000000000000000000000000000000000000000000081526004016111399061298b565b60405180910390fd5b600015156007600087815260200190815260200160002060030160149054906101000a900460ff1615151461117657600080fd5b8360076000878152602001908152602001600020600201541461119857600080fd5b6001151560008054906101000a900460ff161515146111b657600080fd5b600115156111c5868484610f0e565b1515146111d157600080fd5b600d60009054906101000a900473ffffffffffffffffffffffffffffffffffffffff1673ffffffffffffffffffffffffffffffffffffffff1663a9059cbb8460076000898152602001908152602001600020600201546040518363ffffffff1660e01b81526004016112449291906129ab565b6020604051808303816000875af1158015611263573d6000803e3d6000fd5b505050506040513d601f19601f8201168201806040525081019061128791906126b4565b5060016007600087815260200190815260200160002060030160146101000a81548160ff02191690831515021790555060006007600087815260200190815260200160002060020181905550826007600087815260200190815260200160002060030160006101000a81548173ffffffffffffffffffffffffffffffffffffffff021916908373ffffffffffffffffffffffffffffffffffffffff1602179055505050505050565b60008054906101000a900460ff1681565b6000600560009054906101000a900473ffffffffffffffffffffffffffffffffffffffff1673ffffffffffffffffffffffffffffffffffffffff163373ffffffffffffffffffffffffffffffffffffffff16146113d2576040517f08c379a00000000000000000000000000000000000000000000000000000000081526004016113c99061255c565b60405180910390fd5b6007600083815260200190815260200160002060030160149054906101000a900460ff169050919050565b600460009054906101000a900473ffffffffffffffffffffffffffffffffffffffff1673ffffffffffffffffffffffffffffffffffffffff163373ffffffffffffffffffffffffffffffffffffffff161461148d576040517f08c379a0000000000000000000000000000000000000000000000000000000008152600401611484906124f0565b60405180910390fd5b60016000806101000a81548160ff021916908315150217905550565b6060600460009054906101000a900473ffffffffffffffffffffffffffffffffffffffff1673ffffffffffffffffffffffffffffffffffffffff163373ffffffffffffffffffffffffffffffffffffffff161461153b576040517f08c379a0000000000000000000000000000000000000000000000000000000008152600401611532906124f0565b60405180910390fd5b600060085467ffffffffffffffff8111156115595761155861257c565b5b60405190808252806020026020018201604052801561159257816020015b61157f611cb6565b8152602001906001900390816115775790505b50905060005b600854811015611722576000600760008381526020019081526020016000209050806040518060e00160405290816000820180546115d590612710565b80601f016020809104026020016040519081016040528092919081815260200182805461160190612710565b801561164e5780601f106116235761010080835404028352916020019161164e565b820191906000526020600020905b81548152906001019060200180831161163157829003601f168201915b5050505050815260200160018201548152602001600282015481526020016003820160009054906101000a900473ffffffffffffffffffffffffffffffffffffffff1673ffffffffffffffffffffffffffffffffffffffff1673ffffffffffffffffffffffffffffffffffffffff1681526020016003820160149054906101000a900460ff1615151515815260200160048201548152602001600582015481525050838381518110611703576117026125ab565b5b602002602001018190525050808061171a90612609565b915050611598565b508091505090565b600d60009054906101000a900473ffffffffffffffffffffffffffffffffffffffff1681565b606060008203611797576040518060400160405280600181526020017f300000000000000000000000000000000000000000000000000000000000000081525090506118ab565b600082905060005b600082146117c95780806117b290612609565b915050600a826117c29190612a03565b915061179f565b60008167ffffffffffffffff8111156117e5576117e461257c565b5b6040519080825280601f01601f1916602001820160405280156118175781602001600182028036833780820191505090505b5090505b600085146118a4576001826118309190612859565b9150600a8561183f9190612a34565b603061184b9190612a65565b60f81b818381518110611861576118606125ab565b5b60200101907effffffffffffffffffffffffffffffffffffffffffffffffffffffffffffff1916908160001a905350600a8561189d9190612a03565b945061181b565b8093505050505b919050565b6000816040516020016118c39190612b28565b604051602081830303815290604052805190602001209050919050565b60008060006118ef8585611907565b915091506118fc81611958565b819250505092915050565b60008060418351036119485760008060006020860151925060408601519150606086015160001a905061193c87828585611b24565b94509450505050611951565b60006002915091505b9250929050565b6000600481111561196c5761196b612b4e565b5b81600481111561197f5761197e612b4e565b5b0315611b21576001600481111561199957611998612b4e565b5b8160048111156119ac576119ab612b4e565b5b036119ec576040517f08c379a00000000000000000000000000000000000000000000000000000000081526004016119e390612bc9565b60405180910390fd5b60026004811115611a00576119ff612b4e565b5b816004811115611a1357611a12612b4e565b5b03611a53576040517f08c379a0000000000000000000000000000000000000000000000000000000008152600401611a4a90612c35565b60405180910390fd5b60036004811115611a6757611a66612b4e565b5b816004811115611a7a57611a79612b4e565b5b03611aba576040517f08c379a0000000000000000000000000000000000000000000000000000000008152600401611ab190612cc7565b60405180910390fd5b600480811115611acd57611acc612b4e565b5b816004811115611ae057611adf612b4e565b5b03611b20576040517f08c379a0000000000000000000000000000000000000000000000000000000008152600401611b1790612d59565b60405180910390fd5b5b50565b6000807f7fffffffffffffffffffffffffffffff5d576e7357a4501ddfe92f46681b20a08360001c1115611b5f576000600391509150611c27565b601b8560ff1614158015611b775750601c8560ff1614155b15611b89576000600491509150611c27565b600060018787878760405160008152602001604052604051611bae9493929190612d95565b6020604051602081039080840390855afa158015611bd0573d6000803e3d6000fd5b505050602060405103519050600073ffffffffffffffffffffffffffffffffffffffff168173ffffffffffffffffffffffffffffffffffffffff1603611c1e57600060019250925050611c27565b80600092509250505b94509492505050565b828054611c3c90612710565b90600052602060002090601f016020900481019282611c5e5760008555611ca5565b82601f10611c7757805160ff1916838001178555611ca5565b82800160010185558215611ca5579182015b82811115611ca4578251825591602001919060010190611c89565b5b509050611cb29190611d0e565b5090565b6040518060e00160405280606081526020016000815260200160008152602001600073ffffffffffffffffffffffffffffffffffffffff16815260200160001515815260200160008152602001600080191681525090565b5b80821115611d27576000816000905550600101611d0f565b5090565b6000819050919050565b611d3e81611d2b565b82525050565b6000602082019050611d596000830184611d35565b92915050565b600073ffffffffffffffffffffffffffffffffffffffff82169050919050565b6000611d8a82611d5f565b9050919050565b611d9a81611d7f565b82525050565b6000602082019050611db56000830184611d91565b92915050565b600081519050919050565b600082825260208201905092915050565b6000819050602082019050919050565b60008115159050919050565b611dfc81611de7565b82525050565b6000611e0e8383611df3565b60208301905092915050565b6000602082019050919050565b6000611e3282611dbb565b611e3c8185611dc6565b9350611e4783611dd7565b8060005b83811015611e78578151611e5f8882611e02565b9750611e6a83611e1a565b925050600181019050611e4b565b5085935050505092915050565b60006020820190508181036000830152611e9f8184611e27565b905092915050565b600080fd5b600080fd5b611eba81611d2b565b8114611ec557600080fd5b50565b600081359050611ed781611eb1565b92915050565b600060208284031215611ef357611ef2611ea7565b5b6000611f0184828501611ec8565b91505092915050565b6000611f1582611d5f565b9050919050565b611f2581611f0a565b82525050565b6000602082019050611f406000830184611f1c565b92915050565b600081519050919050565b600082825260208201905092915050565b60005b83811015611f80578082015181840152602081019050611f65565b83811115611f8f576000848401525b50505050565b6000601f19601f8301169050919050565b6000611fb182611f46565b611fbb8185611f51565b9350611fcb818560208601611f62565b611fd481611f95565b840191505092915050565b60006020820190508181036000830152611ff98184611fa6565b905092915050565b61200a81611de7565b82525050565b6000819050919050565b61202381612010565b82525050565b600060e0820190508181036000830152612043818a611fa6565b90506120526020830189611d35565b61205f6040830188611d35565b61206c6060830187611f1c565b6120796080830186612001565b61208660a0830185611d35565b61209360c083018461201a565b98975050505050505050565b600080fd5b600080fd5b600080fd5b60008083601f8401126120c4576120c361209f565b5b8235905067ffffffffffffffff8111156120e1576120e06120a4565b5b6020830191508360018202830111156120fd576120fc6120a9565b5b9250929050565b60008060006040848603121561211d5761211c611ea7565b5b600061212b86828701611ec8565b935050602084013567ffffffffffffffff81111561214c5761214b611eac565b5b612158868287016120ae565b92509250509250925092565b60006020820190506121796000830184612001565b92915050565b61218881611f0a565b811461219357600080fd5b50565b6000813590506121a58161217f565b92915050565b6000806000806000608086880312156121c7576121c6611ea7565b5b60006121d588828901611ec8565b95505060206121e688828901611ec8565b94505060406121f788828901612196565b935050606086013567ffffffffffffffff81111561221857612217611eac565b5b612224888289016120ae565b92509250509295509295909350565b600081519050919050565b600082825260208201905092915050565b6000819050602082019050919050565b600082825260208201905092915050565b600061227b82611f46565b612285818561225f565b9350612295818560208601611f62565b61229e81611f95565b840191505092915050565b6122b281611d2b565b82525050565b6122c181611f0a565b82525050565b6122d081612010565b82525050565b600060e08301600083015184820360008601526122f38282612270565b915050602083015161230860208601826122a9565b50604083015161231b60408601826122a9565b50606083015161232e60608601826122b8565b5060808301516123416080860182611df3565b5060a083015161235460a08601826122a9565b5060c083015161236760c08601826122c7565b508091505092915050565b600061237e83836122d6565b905092915050565b6000602082019050919050565b600061239e82612233565b6123a8818561223e565b9350836020820285016123ba8561224f565b8060005b858110156123f657848403895281516123d78582612372565b94506123e283612386565b925060208a019950506001810190506123be565b50829750879550505050505092915050565b600060208201905081810360008301526124228184612393565b905092915050565b6000819050919050565b600061244f61244a61244584611d5f565b61242a565b611d5f565b9050919050565b600061246182612434565b9050919050565b600061247382612456565b9050919050565b61248381612468565b82525050565b600060208201905061249e600083018461247a565b92915050565b7f6e6f7420636c69656e7400000000000000000000000000000000000000000000600082015250565b60006124da600a83611f51565b91506124e5826124a4565b602082019050919050565b60006020820190508181036000830152612509816124cd565b9050919050565b7f6e6f742076616c696461746f7200000000000000000000000000000000000000600082015250565b6000612546600d83611f51565b915061255182612510565b602082019050919050565b6000602082019050818103600083015261257581612539565b9050919050565b7f4e487b7100000000000000000000000000000000000000000000000000000000600052604160045260246000fd5b7f4e487b7100000000000000000000000000000000000000000000000000000000600052603260045260246000fd5b7f4e487b7100000000000000000000000000000000000000000000000000000000600052601160045260246000fd5b600061261482611d2b565b91507fffffffffffffffffffffffffffffffffffffffffffffffffffffffffffffffff8203612646576126456125da565b5b600182019050919050565b60006060820190506126666000830186611f1c565b6126736020830185611f1c565b6126806040830184611d35565b949350505050565b61269181611de7565b811461269c57600080fd5b50565b6000815190506126ae81612688565b92915050565b6000602082840312156126ca576126c9611ea7565b5b60006126d88482850161269f565b91505092915050565b7f4e487b7100000000000000000000000000000000000000000000000000000000600052602260045260246000fd5b6000600282049050600182168061272857607f821691505b60208210810361273b5761273a6126e1565b5b50919050565b600081905092915050565b600061275782611f46565b6127618185612741565b9350612771818560208601611f62565b80840191505092915050565b60008190508160005260206000209050919050565b6000815461279f81612710565b6127a98186612741565b945060018216600081146127c457600181146127d557612808565b60ff19831686528186019350612808565b6127de8561277d565b60005b83811015612800578154818901526001820191506020810190506127e1565b838801955050505b50505092915050565b600061281d828661274c565b9150612829828561274c565b91506128358284612792565b9150819050949350505050565b600061284e828461274c565b915081905092915050565b600061286482611d2b565b915061286f83611d2b565b925082821015612882576128816125da565b5b828203905092915050565b60008151905061289c81611eb1565b92915050565b6000602082840312156128b8576128b7611ea7565b5b60006128c68482850161288d565b91505092915050565b60006128da82612456565b9050919050565b6128ea816128cf565b82525050565b600060408201905061290560008301856128e1565b6129126020830184611d35565b9392505050565b7f74696d657374616d7020657863656564732065787069726174696f6e2064617460008201527f6500000000000000000000000000000000000000000000000000000000000000602082015250565b6000612975602183611f51565b915061298082612919565b604082019050919050565b600060208201905081810360008301526129a481612968565b9050919050565b60006040820190506129c06000830185611f1c565b6129cd6020830184611d35565b9392505050565b7f4e487b7100000000000000000000000000000000000000000000000000000000600052601260045260246000fd5b6000612a0e82611d2b565b9150612a1983611d2b565b925082612a2957612a286129d4565b5b828204905092915050565b6000612a3f82611d2b565b9150612a4a83611d2b565b925082612a5a57612a596129d4565b5b828206905092915050565b6000612a7082611d2b565b9150612a7b83611d2b565b9250827fffffffffffffffffffffffffffffffffffffffffffffffffffffffffffffffff03821115612ab057612aaf6125da565b5b828201905092915050565b7f19457468657265756d205369676e6564204d6573736167653a0a333200000000600082015250565b6000612af1601c83612741565b9150612afc82612abb565b601c82019050919050565b6000819050919050565b612b22612b1d82612010565b612b07565b82525050565b6000612b3382612ae4565b9150612b3f8284612b11565b60208201915081905092915050565b7f4e487b7100000000000000000000000000000000000000000000000000000000600052602160045260246000fd5b7f45434453413a20696e76616c6964207369676e61747572650000000000000000600082015250565b6000612bb3601883611f51565b9150612bbe82612b7d565b602082019050919050565b60006020820190508181036000830152612be281612ba6565b9050919050565b7f45434453413a20696e76616c6964207369676e6174757265206c656e67746800600082015250565b6000612c1f601f83611f51565b9150612c2a82612be9565b602082019050919050565b60006020820190508181036000830152612c4e81612c12565b9050919050565b7f45434453413a20696e76616c6964207369676e6174757265202773272076616c60008201527f7565000000000000000000000000000000000000000000000000000000000000602082015250565b6000612cb1602283611f51565b9150612cbc82612c55565b604082019050919050565b60006020820190508181036000830152612ce081612ca4565b9050919050565b7f45434453413a20696e76616c6964207369676e6174757265202776272076616c60008201527f7565000000000000000000000000000000000000000000000000000000000000602082015250565b6000612d43602283611f51565b9150612d4e82612ce7565b604082019050919050565b60006020820190508181036000830152612d7281612d36565b9050919050565b600060ff82169050919050565b612d8f81612d79565b82525050565b6000608082019050612daa600083018761201a565b612db76020830186612d86565b612dc4604083018561201a565b612dd1606083018461201a565b9594505050505056fea26469706673582212207c07bb6edabf168ec7ea3bcb2a0790f973dc07e914f1d55ecf89fe447fe0031d64736f6c634300080d0033",
  "linkReferences": {},
  "deployedLinkReferences": {}
}