{
  "_format": "hh-sol-artifact-1",
  "contractName": "LinkDropProd",
  "sourceName": "contracts/LinkDropProd.sol",
  "abi": [
    {
      "inputs": [
        {
          "internalType": "address",
          "name": "_token",
          "type": "address"
        },
        {
          "internalType": "address payable",
          "name": "_client",
          "type": "address"
        },
        {
          "internalType": "uint256",
          "name": "_duration",
          "type": "uint256"
        },
        {
          "internalType": "uint256",
          "name": "_cost",
          "type": "uint256"
        },
        {
          "internalType": "uint256",
          "name": "_num",
          "type": "uint256"
        },
        {
          "internalType": "string",
          "name": "_campaignID",
          "type": "string"
        }
      ],
      "stateMutability": "nonpayable",
      "type": "constructor"
    },
    {
      "inputs": [],
      "name": "addLink",
      "outputs": [],
      "stateMutability": "nonpayable",
      "type": "function"
    },
    {
      "inputs": [
        {
          "internalType": "uint256",
          "name": "_id",
          "type": "uint256"
        },
        {
          "internalType": "uint256",
          "name": "_balance",
          "type": "uint256"
        },
        {
          "internalType": "address",
          "name": "_user",
          "type": "address"
        },
        {
          "internalType": "bytes",
          "name": "_signature",
          "type": "bytes"
        }
      ],
      "name": "airdrop",
      "outputs": [],
      "stateMutability": "nonpayable",
      "type": "function"
    },
    {
      "inputs": [],
      "name": "campaignID",
      "outputs": [
        {
          "internalType": "string",
          "name": "",
          "type": "string"
        }
      ],
      "stateMutability": "view",
      "type": "function"
    },
    {
      "inputs": [],
      "name": "cancelCampaign",
      "outputs": [],
      "stateMutability": "nonpayable",
      "type": "function"
    },
    {
      "inputs": [],
      "name": "cost",
      "outputs": [
        {
          "internalType": "uint256",
          "name": "",
          "type": "uint256"
        }
      ],
      "stateMutability": "view",
      "type": "function"
    },
    {
      "inputs": [],
      "name": "costPerNum",
      "outputs": [
        {
          "internalType": "uint256",
          "name": "",
          "type": "uint256"
        }
      ],
      "stateMutability": "view",
      "type": "function"
    },
    {
      "inputs": [
        {
          "internalType": "uint256",
          "name": "nu",
          "type": "uint256"
        }
      ],
      "name": "createMultipleLinks",
      "outputs": [],
      "stateMutability": "nonpayable",
      "type": "function"
    },
    {
      "inputs": [],
      "name": "duration",
      "outputs": [
        {
          "internalType": "uint256",
          "name": "",
          "type": "uint256"
        }
      ],
      "stateMutability": "view",
      "type": "function"
    },
    {
      "inputs": [],
      "name": "endTime",
      "outputs": [
        {
          "internalType": "uint256",
          "name": "",
          "type": "uint256"
        }
      ],
      "stateMutability": "view",
      "type": "function"
    },
    {
      "inputs": [
        {
          "internalType": "uint256",
          "name": "_fundingAmount",
          "type": "uint256"
        }
      ],
      "name": "fundContract",
      "outputs": [],
      "stateMutability": "nonpayable",
      "type": "function"
    },
    {
      "inputs": [],
      "name": "generatedLinkCount",
      "outputs": [
        {
          "internalType": "uint256",
          "name": "",
          "type": "uint256"
        }
      ],
      "stateMutability": "view",
      "type": "function"
    },
    {
      "inputs": [],
      "name": "getLinks",
      "outputs": [
        {
          "components": [
            {
              "internalType": "uint256",
              "name": "id",
              "type": "uint256"
            },
            {
              "internalType": "uint256",
              "name": "balance",
              "type": "uint256"
            },
            {
              "internalType": "address",
              "name": "pubwallet",
              "type": "address"
            },
            {
              "internalType": "bool",
              "name": "notTaken",
              "type": "bool"
            },
            {
              "internalType": "bytes32",
              "name": "puzzle",
              "type": "bytes32"
            }
          ],
          "internalType": "struct LinkDropProd.Link[]",
          "name": "",
          "type": "tuple[]"
        }
      ],
      "stateMutability": "view",
      "type": "function"
    },
    {
      "inputs": [
        {
          "internalType": "uint256",
          "name": "nu",
          "type": "uint256"
        }
      ],
      "name": "getLinksByIndexFromValidator",
      "outputs": [
        {
          "internalType": "bool",
          "name": "",
          "type": "bool"
        }
      ],
      "stateMutability": "view",
      "type": "function"
    },
    {
      "inputs": [],
      "name": "getLinksFromValidator",
      "outputs": [
        {
          "internalType": "bool[]",
          "name": "",
          "type": "bool[]"
        }
      ],
      "stateMutability": "view",
      "type": "function"
    },
    {
      "inputs": [],
      "name": "initialSupply",
      "outputs": [
        {
          "internalType": "uint256",
          "name": "",
          "type": "uint256"
        }
      ],
      "stateMutability": "view",
      "type": "function"
    },
    {
      "inputs": [
        {
          "internalType": "uint256",
          "name": "nuu",
          "type": "uint256"
        },
        {
          "internalType": "bytes",
          "name": "signature",
          "type": "bytes"
        }
      ],
      "name": "isValidSignature",
      "outputs": [
        {
          "internalType": "bool",
          "name": "",
          "type": "bool"
        }
      ],
      "stateMutability": "view",
      "type": "function"
    },
    {
      "inputs": [],
      "name": "linkCount",
      "outputs": [
        {
          "internalType": "uint256",
          "name": "",
          "type": "uint256"
        }
      ],
      "stateMutability": "view",
      "type": "function"
    },
    {
      "inputs": [],
      "name": "num",
      "outputs": [
        {
          "internalType": "uint256",
          "name": "",
          "type": "uint256"
        }
      ],
      "stateMutability": "view",
      "type": "function"
    },
    {
      "inputs": [],
      "name": "pauseCampaign",
      "outputs": [],
      "stateMutability": "nonpayable",
      "type": "function"
    },
    {
      "inputs": [],
      "name": "randomString",
      "outputs": [
        {
          "internalType": "string",
          "name": "",
          "type": "string"
        }
      ],
      "stateMutability": "view",
      "type": "function"
    },
    {
      "inputs": [],
      "name": "runCampaign",
      "outputs": [],
      "stateMutability": "nonpayable",
      "type": "function"
    },
    {
      "inputs": [],
      "name": "running",
      "outputs": [
        {
          "internalType": "bool",
          "name": "",
          "type": "bool"
        }
      ],
      "stateMutability": "view",
      "type": "function"
    },
    {
      "inputs": [],
      "name": "startTime",
      "outputs": [
        {
          "internalType": "uint256",
          "name": "",
          "type": "uint256"
        }
      ],
      "stateMutability": "view",
      "type": "function"
    },
    {
      "inputs": [],
      "name": "token",
      "outputs": [
        {
          "internalType": "contract IERC20",
          "name": "",
          "type": "address"
        }
      ],
      "stateMutability": "view",
      "type": "function"
    },
    {
      "inputs": [
        {
          "internalType": "uint256",
          "name": "nu",
          "type": "uint256"
        },
        {
          "internalType": "bytes32",
          "name": "_puzzle",
          "type": "bytes32"
        }
      ],
      "name": "verifyPuzzle",
      "outputs": [
        {
          "internalType": "bool",
          "name": "",
          "type": "bool"
        }
      ],
      "stateMutability": "view",
      "type": "function"
    }
  ],
  "bytecode": "0x60806040523480156200001157600080fd5b50604051620030f2380380620030f28339818101604052810190620000379190620004e3565b85600e60006101000a81548173ffffffffffffffffffffffffffffffffffffffff021916908373ffffffffffffffffffffffffffffffffffffffff16021790555084600460006101000a81548173ffffffffffffffffffffffffffffffffffffffff021916908373ffffffffffffffffffffffffffffffffffffffff1602179055508260098190555082600a8190555081600b819055508183620000dc9190620005fc565b600c8190555033600560006101000a81548173ffffffffffffffffffffffffffffffffffffffff021916908373ffffffffffffffffffffffffffffffffffffffff16021790555080600690805190602001906200013b929190620001b1565b506018603c80866200014e919062000634565b6200015a919062000634565b62000166919062000634565b6002819055504260018190555060025460015462000185919062000695565b60038190555060016000806101000a81548160ff02191690831515021790555050505050505062000756565b828054620001bf9062000721565b90600052602060002090601f016020900481019282620001e357600085556200022f565b82601f10620001fe57805160ff19168380011785556200022f565b828001600101855582156200022f579182015b828111156200022e57825182559160200191906001019062000211565b5b5090506200023e919062000242565b5090565b5b808211156200025d57600081600090555060010162000243565b5090565b6000604051905090565b600080fd5b600080fd5b600073ffffffffffffffffffffffffffffffffffffffff82169050919050565b6000620002a28262000275565b9050919050565b620002b48162000295565b8114620002c057600080fd5b50565b600081519050620002d481620002a9565b92915050565b6000620002e78262000275565b9050919050565b620002f981620002da565b81146200030557600080fd5b50565b6000815190506200031981620002ee565b92915050565b6000819050919050565b62000334816200031f565b81146200034057600080fd5b50565b600081519050620003548162000329565b92915050565b600080fd5b600080fd5b6000601f19601f8301169050919050565b7f4e487b7100000000000000000000000000000000000000000000000000000000600052604160045260246000fd5b620003af8262000364565b810181811067ffffffffffffffff82111715620003d157620003d062000375565b5b80604052505050565b6000620003e662000261565b9050620003f48282620003a4565b919050565b600067ffffffffffffffff82111562000417576200041662000375565b5b620004228262000364565b9050602081019050919050565b60005b838110156200044f57808201518184015260208101905062000432565b838111156200045f576000848401525b50505050565b60006200047c6200047684620003f9565b620003da565b9050828152602081018484840111156200049b576200049a6200035f565b5b620004a88482856200042f565b509392505050565b600082601f830112620004c857620004c76200035a565b5b8151620004da84826020860162000465565b91505092915050565b60008060008060008060c087890312156200050357620005026200026b565b5b60006200051389828a01620002c3565b96505060206200052689828a0162000308565b95505060406200053989828a0162000343565b94505060606200054c89828a0162000343565b93505060806200055f89828a0162000343565b92505060a087015167ffffffffffffffff81111562000583576200058262000270565b5b6200059189828a01620004b0565b9150509295509295509295565b7f4e487b7100000000000000000000000000000000000000000000000000000000600052601260045260246000fd5b7f4e487b7100000000000000000000000000000000000000000000000000000000600052601160045260246000fd5b600062000609826200031f565b915062000616836200031f565b9250826200062957620006286200059e565b5b828204905092915050565b600062000641826200031f565b91506200064e836200031f565b9250817fffffffffffffffffffffffffffffffffffffffffffffffffffffffffffffffff04831182151516156200068a5762000689620005cd565b5b828202905092915050565b6000620006a2826200031f565b9150620006af836200031f565b9250827fffffffffffffffffffffffffffffffffffffffffffffffffffffffffffffffff03821115620006e757620006e6620005cd565b5b828201905092915050565b7f4e487b7100000000000000000000000000000000000000000000000000000000600052602260045260246000fd5b600060028204905060018216806200073a57607f821691505b60208210810362000750576200074f620006f2565b5b50919050565b61298c80620007666000396000f3fe608060405234801561001057600080fd5b50600436106101735760003560e01c806378e97925116100de578063b78605b211610097578063deb456da11610071578063deb456da146103d0578063f293cd3114610400578063f66ddcbb1461040a578063fc0c546a1461042857610173565b8063b78605b214610378578063bafcd67814610394578063d85bd526146103b257610173565b806378e97925146102b45780638e2ef62f146102d2578063980e7844146103025780639ae6c8101461030c578063aac476791461032a578063b2af93621461034857610173565b8063378dc3dc11610130578063378dc3dc1461021657806339f8ddbf1461023457806342317f951461023e57806349ed2fa91461025c5780634e70b1dc1461027a578063746544791461029857610173565b80630d10f3b5146101785780630fb5a6b41461018257806312eeb88b146101a057806313faede6146101be5780633197cbb6146101dc5780633519a2f8146101fa575b600080fd5b610180610446565b005b61018a6104f2565b6040516101979190611997565b60405180910390f35b6101a86104f8565b6040516101b59190611a7c565b60405180910390f35b6101c661064a565b6040516101d39190611997565b60405180910390f35b6101e4610650565b6040516101f19190611997565b60405180910390f35b610214600480360381019061020f9190611ad4565b610656565b005b61021e61078c565b60405161022b9190611997565b60405180910390f35b61023c610792565b005b610246610907565b6040516102539190611997565b60405180910390f35b61026461090d565b6040516102719190611b9a565b60405180910390f35b61028261099b565b60405161028f9190611997565b60405180910390f35b6102b260048036038101906102ad9190611ad4565b6109a1565b005b6102bc6109cb565b6040516102c99190611997565b60405180910390f35b6102ec60048036038101906102e79190611bf2565b6109d1565b6040516102f99190611c41565b60405180910390f35b61030a610a94565b005b610314610ca4565b6040516103219190611997565b60405180910390f35b610332610caa565b60405161033f9190611997565b60405180910390f35b610362600480360381019061035d9190611cc1565b610cb0565b60405161036f9190611c41565b60405180910390f35b610392600480360381019061038d9190611d7f565b610d80565b005b61039c611041565b6040516103a99190611b9a565b60405180910390f35b6103ba6110cf565b6040516103c79190611c41565b60405180910390f35b6103ea60048036038101906103e59190611ad4565b6110e0565b6040516103f79190611c41565b60405180910390f35b61040861119d565b005b610412611249565b60405161041f9190611f4b565b60405180910390f35b61043061142e565b60405161043d9190611fcc565b60405180910390f35b600460009054906101000a900473ffffffffffffffffffffffffffffffffffffffff1673ffffffffffffffffffffffffffffffffffffffff163373ffffffffffffffffffffffffffffffffffffffff16146104d6576040517f08c379a00000000000000000000000000000000000000000000000000000000081526004016104cd90612033565b60405180910390fd5b60008060006101000a81548160ff021916908315150217905550565b60025481565b6060600560009054906101000a900473ffffffffffffffffffffffffffffffffffffffff1673ffffffffffffffffffffffffffffffffffffffff163373ffffffffffffffffffffffffffffffffffffffff161461058a576040517f08c379a00000000000000000000000000000000000000000000000000000000081526004016105819061209f565b60405180910390fd5b600060085467ffffffffffffffff8111156105a8576105a76120bf565b5b6040519080825280602002602001820160405280156105d65781602001602082028036833780820191505090505b50905060005b600854811015610642576007600082815260200190815260200160002060020160149054906101000a900460ff1682828151811061061d5761061c6120ee565b5b602002602001019015159081151581525050808061063a9061214c565b9150506105dc565b508091505090565b60095481565b60035481565b600460009054906101000a900473ffffffffffffffffffffffffffffffffffffffff1673ffffffffffffffffffffffffffffffffffffffff163373ffffffffffffffffffffffffffffffffffffffff16146106e6576040517f08c379a00000000000000000000000000000000000000000000000000000000081526004016106dd90612033565b60405180910390fd5b600e60009054906101000a900473ffffffffffffffffffffffffffffffffffffffff1673ffffffffffffffffffffffffffffffffffffffff166323b872dd3330846040518463ffffffff1660e01b8152600401610745939291906121a3565b6020604051808303816000875af1158015610764573d6000803e3d6000fd5b505050506040513d601f19601f820116820180604052508101906107889190612206565b5050565b600a5481565b6040518060a001604052806008548152602001600c548152602001600073ffffffffffffffffffffffffffffffffffffffff1681526020016001151581526020016107de600854611454565b6107e9600c54611454565b60066040516020016107fd93929190612363565b60405160208183030381529060405260405160200161081c9190612394565b60405160208183030381529060405280519060200120815250600760006008548152602001908152602001600020600082015181600001556020820151816001015560408201518160020160006101000a81548173ffffffffffffffffffffffffffffffffffffffff021916908373ffffffffffffffffffffffffffffffffffffffff16021790555060608201518160020160146101000a81548160ff02191690831515021790555060808201518160030155905050600860008154809291906108e59061214c565b9190505550600c54600960008282546108fe91906123ab565b92505081905550565b600d5481565b6006805461091a9061229e565b80601f01602080910402602001604051908101604052809291908181526020018280546109469061229e565b80156109935780601f1061096857610100808354040283529160200191610993565b820191906000526020600020905b81548152906001019060200180831161097657829003601f168201915b505050505081565b600b5481565b60005b818110156109c7576109b4610792565b80806109bf9061214c565b9150506109a4565b5050565b60015481565b6000600560009054906101000a900473ffffffffffffffffffffffffffffffffffffffff1673ffffffffffffffffffffffffffffffffffffffff163373ffffffffffffffffffffffffffffffffffffffff1614610a63576040517f08c379a0000000000000000000000000000000000000000000000000000000008152600401610a5a9061209f565b60405180910390fd5b81600760008581526020019081526020016000206003015403610a895760019050610a8e565b600090505b92915050565b600460009054906101000a900473ffffffffffffffffffffffffffffffffffffffff1673ffffffffffffffffffffffffffffffffffffffff163373ffffffffffffffffffffffffffffffffffffffff1614610b24576040517f08c379a0000000000000000000000000000000000000000000000000000000008152600401610b1b90612033565b60405180910390fd5b6000600e60009054906101000a900473ffffffffffffffffffffffffffffffffffffffff1673ffffffffffffffffffffffffffffffffffffffff166370a08231306040518263ffffffff1660e01b8152600401610b8191906123df565b602060405180830381865afa158015610b9e573d6000803e3d6000fd5b505050506040513d601f19601f82011682018060405250810190610bc2919061240f565b9050600e60009054906101000a900473ffffffffffffffffffffffffffffffffffffffff1673ffffffffffffffffffffffffffffffffffffffff1663a9059cbb600460009054906101000a900473ffffffffffffffffffffffffffffffffffffffff16836040518363ffffffff1660e01b8152600401610c4392919061245d565b6020604051808303816000875af1158015610c62573d6000803e3d6000fd5b505050506040513d601f19601f82011682018060405250810190610c869190612206565b5060008060006101000a81548160ff02191690831515021790555050565b600c5481565b60085481565b6000600560009054906101000a900473ffffffffffffffffffffffffffffffffffffffff1673ffffffffffffffffffffffffffffffffffffffff16610d6084848080601f016020809104026020016040519081016040528093929190818152602001838380828437600081840152601f19601f82011690508083019250505050505050610d5260076000898152602001908152602001600020600301546115b4565b6115e490919063ffffffff16565b73ffffffffffffffffffffffffffffffffffffffff161490509392505050565b600560009054906101000a900473ffffffffffffffffffffffffffffffffffffffff1673ffffffffffffffffffffffffffffffffffffffff163373ffffffffffffffffffffffffffffffffffffffff1614610e10576040517f08c379a0000000000000000000000000000000000000000000000000000000008152600401610e079061209f565b60405180910390fd5b4260035411610e54576040517f08c379a0000000000000000000000000000000000000000000000000000000008152600401610e4b906124f8565b60405180910390fd5b600115156007600087815260200190815260200160002060020160149054906101000a900460ff16151514610e8857600080fd5b83600760008781526020019081526020016000206001015414610eaa57600080fd5b6001151560008054906101000a900460ff16151514610ec857600080fd5b60011515610ed7868484610cb0565b151514610ee357600080fd5b600e60009054906101000a900473ffffffffffffffffffffffffffffffffffffffff1673ffffffffffffffffffffffffffffffffffffffff1663a9059cbb8460076000898152602001908152602001600020600101546040518363ffffffff1660e01b8152600401610f56929190612518565b6020604051808303816000875af1158015610f75573d6000803e3d6000fd5b505050506040513d601f19601f82011682018060405250810190610f999190612206565b5060006007600087815260200190815260200160002060020160146101000a81548160ff02191690831515021790555060006007600087815260200190815260200160002060010181905550826007600087815260200190815260200160002060020160006101000a81548173ffffffffffffffffffffffffffffffffffffffff021916908373ffffffffffffffffffffffffffffffffffffffff1602179055505050505050565b600f805461104e9061229e565b80601f016020809104026020016040519081016040528092919081815260200182805461107a9061229e565b80156110c75780601f1061109c576101008083540402835291602001916110c7565b820191906000526020600020905b8154815290600101906020018083116110aa57829003601f168201915b505050505081565b60008054906101000a900460ff1681565b6000600560009054906101000a900473ffffffffffffffffffffffffffffffffffffffff1673ffffffffffffffffffffffffffffffffffffffff163373ffffffffffffffffffffffffffffffffffffffff1614611172576040517f08c379a00000000000000000000000000000000000000000000000000000000081526004016111699061209f565b60405180910390fd5b6007600083815260200190815260200160002060020160149054906101000a900460ff169050919050565b600460009054906101000a900473ffffffffffffffffffffffffffffffffffffffff1673ffffffffffffffffffffffffffffffffffffffff163373ffffffffffffffffffffffffffffffffffffffff161461122d576040517f08c379a000000000000000000000000000000000000000000000000000000000815260040161122490612033565b60405180910390fd5b60016000806101000a81548160ff021916908315150217905550565b6060600460009054906101000a900473ffffffffffffffffffffffffffffffffffffffff1673ffffffffffffffffffffffffffffffffffffffff163373ffffffffffffffffffffffffffffffffffffffff16146112db576040517f08c379a00000000000000000000000000000000000000000000000000000000081526004016112d290612033565b60405180910390fd5b600060085467ffffffffffffffff8111156112f9576112f86120bf565b5b60405190808252806020026020018201604052801561133257816020015b61131f611934565b8152602001906001900390816113175790505b50905060005b600854811015611426576000600760008381526020019081526020016000209050806040518060a001604052908160008201548152602001600182015481526020016002820160009054906101000a900473ffffffffffffffffffffffffffffffffffffffff1673ffffffffffffffffffffffffffffffffffffffff1673ffffffffffffffffffffffffffffffffffffffff1681526020016002820160149054906101000a900460ff16151515158152602001600382015481525050838381518110611407576114066120ee565b5b602002602001018190525050808061141e9061214c565b915050611338565b508091505090565b600e60009054906101000a900473ffffffffffffffffffffffffffffffffffffffff1681565b60606000820361149b576040518060400160405280600181526020017f300000000000000000000000000000000000000000000000000000000000000081525090506115af565b600082905060005b600082146114cd5780806114b69061214c565b915050600a826114c69190612570565b91506114a3565b60008167ffffffffffffffff8111156114e9576114e86120bf565b5b6040519080825280601f01601f19166020018201604052801561151b5781602001600182028036833780820191505090505b5090505b600085146115a85760018261153491906123ab565b9150600a8561154391906125a1565b603061154f91906125d2565b60f81b818381518110611565576115646120ee565b5b60200101907effffffffffffffffffffffffffffffffffffffffffffffffffffffffffffff1916908160001a905350600a856115a19190612570565b945061151f565b8093505050505b919050565b6000816040516020016115c79190612695565b604051602081830303815290604052805190602001209050919050565b60008060006115f3858561160b565b915091506116008161165c565b819250505092915050565b600080604183510361164c5760008060006020860151925060408601519150606086015160001a905061164087828585611828565b94509450505050611655565b60006002915091505b9250929050565b600060048111156116705761166f6126bb565b5b816004811115611683576116826126bb565b5b0315611825576001600481111561169d5761169c6126bb565b5b8160048111156116b0576116af6126bb565b5b036116f0576040517f08c379a00000000000000000000000000000000000000000000000000000000081526004016116e790612736565b60405180910390fd5b60026004811115611704576117036126bb565b5b816004811115611717576117166126bb565b5b03611757576040517f08c379a000000000000000000000000000000000000000000000000000000000815260040161174e906127a2565b60405180910390fd5b6003600481111561176b5761176a6126bb565b5b81600481111561177e5761177d6126bb565b5b036117be576040517f08c379a00000000000000000000000000000000000000000000000000000000081526004016117b590612834565b60405180910390fd5b6004808111156117d1576117d06126bb565b5b8160048111156117e4576117e36126bb565b5b03611824576040517f08c379a000000000000000000000000000000000000000000000000000000000815260040161181b906128c6565b60405180910390fd5b5b50565b6000807f7fffffffffffffffffffffffffffffff5d576e7357a4501ddfe92f46681b20a08360001c111561186357600060039150915061192b565b601b8560ff161415801561187b5750601c8560ff1614155b1561188d57600060049150915061192b565b6000600187878787604051600081526020016040526040516118b29493929190612911565b6020604051602081039080840390855afa1580156118d4573d6000803e3d6000fd5b505050602060405103519050600073ffffffffffffffffffffffffffffffffffffffff168173ffffffffffffffffffffffffffffffffffffffff16036119225760006001925092505061192b565b80600092509250505b94509492505050565b6040518060a001604052806000815260200160008152602001600073ffffffffffffffffffffffffffffffffffffffff168152602001600015158152602001600080191681525090565b6000819050919050565b6119918161197e565b82525050565b60006020820190506119ac6000830184611988565b92915050565b600081519050919050565b600082825260208201905092915050565b6000819050602082019050919050565b60008115159050919050565b6119f3816119de565b82525050565b6000611a0583836119ea565b60208301905092915050565b6000602082019050919050565b6000611a29826119b2565b611a3381856119bd565b9350611a3e836119ce565b8060005b83811015611a6f578151611a5688826119f9565b9750611a6183611a11565b925050600181019050611a42565b5085935050505092915050565b60006020820190508181036000830152611a968184611a1e565b905092915050565b600080fd5b600080fd5b611ab18161197e565b8114611abc57600080fd5b50565b600081359050611ace81611aa8565b92915050565b600060208284031215611aea57611ae9611a9e565b5b6000611af884828501611abf565b91505092915050565b600081519050919050565b600082825260208201905092915050565b60005b83811015611b3b578082015181840152602081019050611b20565b83811115611b4a576000848401525b50505050565b6000601f19601f8301169050919050565b6000611b6c82611b01565b611b768185611b0c565b9350611b86818560208601611b1d565b611b8f81611b50565b840191505092915050565b60006020820190508181036000830152611bb48184611b61565b905092915050565b6000819050919050565b611bcf81611bbc565b8114611bda57600080fd5b50565b600081359050611bec81611bc6565b92915050565b60008060408385031215611c0957611c08611a9e565b5b6000611c1785828601611abf565b9250506020611c2885828601611bdd565b9150509250929050565b611c3b816119de565b82525050565b6000602082019050611c566000830184611c32565b92915050565b600080fd5b600080fd5b600080fd5b60008083601f840112611c8157611c80611c5c565b5b8235905067ffffffffffffffff811115611c9e57611c9d611c61565b5b602083019150836001820283011115611cba57611cb9611c66565b5b9250929050565b600080600060408486031215611cda57611cd9611a9e565b5b6000611ce886828701611abf565b935050602084013567ffffffffffffffff811115611d0957611d08611aa3565b5b611d1586828701611c6b565b92509250509250925092565b600073ffffffffffffffffffffffffffffffffffffffff82169050919050565b6000611d4c82611d21565b9050919050565b611d5c81611d41565b8114611d6757600080fd5b50565b600081359050611d7981611d53565b92915050565b600080600080600060808688031215611d9b57611d9a611a9e565b5b6000611da988828901611abf565b9550506020611dba88828901611abf565b9450506040611dcb88828901611d6a565b935050606086013567ffffffffffffffff811115611dec57611deb611aa3565b5b611df888828901611c6b565b92509250509295509295909350565b600081519050919050565b600082825260208201905092915050565b6000819050602082019050919050565b611e3c8161197e565b82525050565b611e4b81611d41565b82525050565b611e5a81611bbc565b82525050565b60a082016000820151611e766000850182611e33565b506020820151611e896020850182611e33565b506040820151611e9c6040850182611e42565b506060820151611eaf60608501826119ea565b506080820151611ec26080850182611e51565b50505050565b6000611ed48383611e60565b60a08301905092915050565b6000602082019050919050565b6000611ef882611e07565b611f028185611e12565b9350611f0d83611e23565b8060005b83811015611f3e578151611f258882611ec8565b9750611f3083611ee0565b925050600181019050611f11565b5085935050505092915050565b60006020820190508181036000830152611f658184611eed565b905092915050565b6000819050919050565b6000611f92611f8d611f8884611d21565b611f6d565b611d21565b9050919050565b6000611fa482611f77565b9050919050565b6000611fb682611f99565b9050919050565b611fc681611fab565b82525050565b6000602082019050611fe16000830184611fbd565b92915050565b7f6e6f7420636c69656e7400000000000000000000000000000000000000000000600082015250565b600061201d600a83611b0c565b915061202882611fe7565b602082019050919050565b6000602082019050818103600083015261204c81612010565b9050919050565b7f6e6f742076616c696461746f7200000000000000000000000000000000000000600082015250565b6000612089600d83611b0c565b915061209482612053565b602082019050919050565b600060208201905081810360008301526120b88161207c565b9050919050565b7f4e487b7100000000000000000000000000000000000000000000000000000000600052604160045260246000fd5b7f4e487b7100000000000000000000000000000000000000000000000000000000600052603260045260246000fd5b7f4e487b7100000000000000000000000000000000000000000000000000000000600052601160045260246000fd5b60006121578261197e565b91507fffffffffffffffffffffffffffffffffffffffffffffffffffffffffffffffff82036121895761218861211d565b5b600182019050919050565b61219d81611d41565b82525050565b60006060820190506121b86000830186612194565b6121c56020830185612194565b6121d26040830184611988565b949350505050565b6121e3816119de565b81146121ee57600080fd5b50565b600081519050612200816121da565b92915050565b60006020828403121561221c5761221b611a9e565b5b600061222a848285016121f1565b91505092915050565b600081905092915050565b600061224982611b01565b6122538185612233565b9350612263818560208601611b1d565b80840191505092915050565b7f4e487b7100000000000000000000000000000000000000000000000000000000600052602260045260246000fd5b600060028204905060018216806122b657607f821691505b6020821081036122c9576122c861226f565b5b50919050565b60008190508160005260206000209050919050565b600081546122f18161229e565b6122fb8186612233565b9450600182166000811461231657600181146123275761235a565b60ff1983168652818601935061235a565b612330856122cf565b60005b8381101561235257815481890152600182019150602081019050612333565b838801955050505b50505092915050565b600061236f828661223e565b915061237b828561223e565b915061238782846122e4565b9150819050949350505050565b60006123a0828461223e565b915081905092915050565b60006123b68261197e565b91506123c18361197e565b9250828210156123d4576123d361211d565b5b828203905092915050565b60006020820190506123f46000830184612194565b92915050565b60008151905061240981611aa8565b92915050565b60006020828403121561242557612424611a9e565b5b6000612433848285016123fa565b91505092915050565b600061244782611f99565b9050919050565b6124578161243c565b82525050565b6000604082019050612472600083018561244e565b61247f6020830184611988565b9392505050565b7f74696d657374616d7020657863656564732065787069726174696f6e2064617460008201527f6500000000000000000000000000000000000000000000000000000000000000602082015250565b60006124e2602183611b0c565b91506124ed82612486565b604082019050919050565b60006020820190508181036000830152612511816124d5565b9050919050565b600060408201905061252d6000830185612194565b61253a6020830184611988565b9392505050565b7f4e487b7100000000000000000000000000000000000000000000000000000000600052601260045260246000fd5b600061257b8261197e565b91506125868361197e565b92508261259657612595612541565b5b828204905092915050565b60006125ac8261197e565b91506125b78361197e565b9250826125c7576125c6612541565b5b828206905092915050565b60006125dd8261197e565b91506125e88361197e565b9250827fffffffffffffffffffffffffffffffffffffffffffffffffffffffffffffffff0382111561261d5761261c61211d565b5b828201905092915050565b7f19457468657265756d205369676e6564204d6573736167653a0a333200000000600082015250565b600061265e601c83612233565b915061266982612628565b601c82019050919050565b6000819050919050565b61268f61268a82611bbc565b612674565b82525050565b60006126a082612651565b91506126ac828461267e565b60208201915081905092915050565b7f4e487b7100000000000000000000000000000000000000000000000000000000600052602160045260246000fd5b7f45434453413a20696e76616c6964207369676e61747572650000000000000000600082015250565b6000612720601883611b0c565b915061272b826126ea565b602082019050919050565b6000602082019050818103600083015261274f81612713565b9050919050565b7f45434453413a20696e76616c6964207369676e6174757265206c656e67746800600082015250565b600061278c601f83611b0c565b915061279782612756565b602082019050919050565b600060208201905081810360008301526127bb8161277f565b9050919050565b7f45434453413a20696e76616c6964207369676e6174757265202773272076616c60008201527f7565000000000000000000000000000000000000000000000000000000000000602082015250565b600061281e602283611b0c565b9150612829826127c2565b604082019050919050565b6000602082019050818103600083015261284d81612811565b9050919050565b7f45434453413a20696e76616c6964207369676e6174757265202776272076616c60008201527f7565000000000000000000000000000000000000000000000000000000000000602082015250565b60006128b0602283611b0c565b91506128bb82612854565b604082019050919050565b600060208201905081810360008301526128df816128a3565b9050919050565b6128ef81611bbc565b82525050565b600060ff82169050919050565b61290b816128f5565b82525050565b600060808201905061292660008301876128e6565b6129336020830186612902565b61294060408301856128e6565b61294d60608301846128e6565b9594505050505056fea2646970667358221220bb605645dca00d519409b017b5394ec7e8ac6fbcc203666ad269ccabe90d219b64736f6c634300080d0033",
  "linkReferences": {},
  "deployedLinkReferences": {}
}